{
    "contractName": "DMCTokenSale",
    "abi": [
        {
            "constant": true,
            "inputs": [],
            "name": "tokenSold",
            "outputs": [
                {
                    "name": "",
                    "type": "uint256"
                }
            ],
            "payable": false,
            "stateMutability": "view",
            "type": "function"
        },
        {
            "constant": true,
            "inputs": [],
            "name": "tokenContract",
            "outputs": [
                {
                    "name": "",
                    "type": "address"
                }
            ],
            "payable": false,
            "stateMutability": "view",
            "type": "function"
        },
        {
            "constant": true,
            "inputs": [],
            "name": "tokenPrice",
            "outputs": [
                {
                    "name": "",
                    "type": "uint256"
                }
            ],
            "payable": false,
            "stateMutability": "view",
            "type": "function"
        },
        {
            "inputs": [
                {
                    "name": "_tokenContract",
                    "type": "address"
                },
                {
                    "name": "_tokenPrice",
                    "type": "uint256"
                }
            ],
            "payable": false,
            "stateMutability": "nonpayable",
            "type": "constructor"
        },
        {
            "anonymous": false,
            "inputs": [
                {
                    "indexed": false,
                    "name": "_buyer",
                    "type": "address"
                },
                {
                    "indexed": false,
                    "name": "_amount",
                    "type": "uint256"
                }
            ],
            "name": "Sell",
            "type": "event"
        },
        {
            "constant": false,
            "inputs": [
                {
                    "name": "_numberOfTokens",
                    "type": "uint256"
                }
            ],
            "name": "buyTokens",
            "outputs": [],
            "payable": true,
            "stateMutability": "payable",
            "type": "function"
        },
        {
            "constant": false,
            "inputs": [],
            "name": "endSale",
            "outputs": [],
            "payable": false,
            "stateMutability": "nonpayable",
            "type": "function"
        }
    ],
    "bytecode": "0x608060405234801561001057600080fd5b50604051604080610a908339810180604052810190808051906020019092919080519060200190929190505050336000806101000a81548173ffffffffffffffffffffffffffffffffffffffff021916908373ffffffffffffffffffffffffffffffffffffffff16021790555081600160006101000a81548173ffffffffffffffffffffffffffffffffffffffff021916908373ffffffffffffffffffffffffffffffffffffffff1602179055508060028190555050506109ba806100d66000396000f30060806040526004361061006d576000357c0100000000000000000000000000000000000000000000000000000000900463ffffffff1680633610724e14610072578063380d831b14610092578063519ee19e146100a957806355a373d6146100d45780637ff9b5961461012b575b600080fd5b61009060048036038101908080359060200190929190505050610156565b005b34801561009e57600080fd5b506100a7610539565b005b3480156100b557600080fd5b506100be6108c3565b6040518082815260200191505060405180910390f35b3480156100e057600080fd5b506100e96108c9565b604051808273ffffffffffffffffffffffffffffffffffffffff1673ffffffffffffffffffffffffffffffffffffffff16815260200191505060405180910390f35b34801561013757600080fd5b506101406108ef565b6040518082815260200191505060405180910390f35b610162816002546108f5565b341415156101d8576040517f08c379a00000000000000000000000000000000000000000000000000000000081526004018080602001828103825260058152602001807f4572726f7200000000000000000000000000000000000000000000000000000081525060200191505060405180910390fd5b80600160009054906101000a900473ffffffffffffffffffffffffffffffffffffffff1673ffffffffffffffffffffffffffffffffffffffff166370a08231306040518263ffffffff167c0100000000000000000000000000000000000000000000000000000000028152600401808273ffffffffffffffffffffffffffffffffffffffff1673ffffffffffffffffffffffffffffffffffffffff168152602001915050602060405180830381600087803b15801561029657600080fd5b505af11580156102aa573d6000803e3d6000fd5b505050506040513d60208110156102c057600080fd5b810190808051906020019092919050505010151515610347576040517f08c379a00000000000000000000000000000000000000000000000000000000081526004018080602001828103825260058152602001807f4572726f7200000000000000000000000000000000000000000000000000000081525060200191505060405180910390fd5b600160009054906101000a900473ffffffffffffffffffffffffffffffffffffffff1673ffffffffffffffffffffffffffffffffffffffff1663a9059cbb33836040518363ffffffff167c0100000000000000000000000000000000000000000000000000000000028152600401808373ffffffffffffffffffffffffffffffffffffffff1673ffffffffffffffffffffffffffffffffffffffff16815260200182815260200192505050602060405180830381600087803b15801561040c57600080fd5b505af1158015610420573d6000803e3d6000fd5b505050506040513d602081101561043657600080fd5b810190808051906020019092919050505015156104bb576040517f08c379a00000000000000000000000000000000000000000000000000000000081526004018080602001828103825260058152602001807f4572726f7200000000000000000000000000000000000000000000000000000081525060200191505060405180910390fd5b806003600082825401925050819055507f5e5e995ce3133561afceaa51a9a154d5db228cd7525d34df5185582c18d3df093382604051808373ffffffffffffffffffffffffffffffffffffffff1673ffffffffffffffffffffffffffffffffffffffff1681526020018281526020019250505060405180910390a150565b6000809054906101000a900473ffffffffffffffffffffffffffffffffffffffff1673ffffffffffffffffffffffffffffffffffffffff163373ffffffffffffffffffffffffffffffffffffffff161415156105fd576040517f08c379a00000000000000000000000000000000000000000000000000000000081526004018080602001828103825260058152602001807f4572726f7200000000000000000000000000000000000000000000000000000081525060200191505060405180910390fd5b600160009054906101000a900473ffffffffffffffffffffffffffffffffffffffff1673ffffffffffffffffffffffffffffffffffffffff1663a9059cbb6000809054906101000a900473ffffffffffffffffffffffffffffffffffffffff16600160009054906101000a900473ffffffffffffffffffffffffffffffffffffffff1673ffffffffffffffffffffffffffffffffffffffff166370a08231306040518263ffffffff167c0100000000000000000000000000000000000000000000000000000000028152600401808273ffffffffffffffffffffffffffffffffffffffff1673ffffffffffffffffffffffffffffffffffffffff168152602001915050602060405180830381600087803b15801561071a57600080fd5b505af115801561072e573d6000803e3d6000fd5b505050506040513d602081101561074457600080fd5b81019080805190602001909291905050506040518363ffffffff167c0100000000000000000000000000000000000000000000000000000000028152600401808373ffffffffffffffffffffffffffffffffffffffff1673ffffffffffffffffffffffffffffffffffffffff16815260200182815260200192505050602060405180830381600087803b1580156107da57600080fd5b505af11580156107ee573d6000803e3d6000fd5b505050506040513d602081101561080457600080fd5b81019080805190602001909291905050501515610889576040517f08c379a00000000000000000000000000000000000000000000000000000000081526004018080602001828103825260058152602001807f4572726f7200000000000000000000000000000000000000000000000000000081525060200191505060405180910390fd5b6000809054906101000a900473ffffffffffffffffffffffffffffffffffffffff1673ffffffffffffffffffffffffffffffffffffffff16ff5b60035481565b600160009054906101000a900473ffffffffffffffffffffffffffffffffffffffff1681565b60025481565b6000808214806109145750828283850292508281151561091157fe5b04145b1515610988576040517f08c379a00000000000000000000000000000000000000000000000000000000081526004018080602001828103825260148152602001807f64732d6d6174682d6d756c2d6f766572666c6f7700000000000000000000000081525060200191505060405180910390fd5b929150505600a165627a7a7230582071d6a2bd92e0317a6c994788f31b011c6ca505ce03bedfac93066e11511a905d0029",
    "source": "pragma solidity ^0.4.24;\n\n\nimport \"./DMCToken.sol\";\n\ncontract DMCTokenSale {\n    address admin;\n    DMCToken public tokenContract;\n    uint256 public tokenPrice;\n    uint256 public tokenSold;\n\n\n    event Sell(\n        address _buyer,\n        uint256 _amount\n    );\n\n    constructor(DMCToken _tokenContract, uint256 _tokenPrice) public {\n        // Assign an Admin to as the sender\n        admin = msg.sender;\n        // Token Contract\n        tokenContract = _tokenContract;\n        // Token Price\n        tokenPrice = _tokenPrice;\n    }\n\n    function multiply(uint x, uint y) internal pure returns (uint z) {\n        require(y == 0 || (z = x * y) / y == x, \"ds-math-mul-overflow\");\n    }\n\n    // Buying tokens\n    function buyTokens(uint256 _numberOfTokens) public payable {\n        require(msg.value == multiply(_numberOfTokens, tokenPrice), \"Error\");\n        require(tokenContract.balanceOf(this) >= _numberOfTokens, \"Error\");\n        require(tokenContract.transfer(msg.sender, _numberOfTokens), \"Error\");\n        // Require that a transfer is successful\n\n\n        // Keep track of numbers of tokens sold\n        tokenSold += _numberOfTokens;\n        // Trigger a sell event\n        emit Sell(msg.sender, _numberOfTokens);\n    }\n\n    function endSale() public {\n        // Only an admin can end the sale\n        require(msg.sender == admin, \"Error\");\n        // Transfer remaining Dapp tokens to Admin\n        require(tokenContract.transfer(admin, tokenContract.balanceOf(this)), \"Error\");\n        // Destroy this contract\n        selfdestruct(admin);\n    }\n\n}",
    "sourcePath": "/Users/admin/Desktop/delta/dmc_tokens/truffle-init/contracts/DMCTokenSale.sol",
    "compiler": {
        "name": "solc",
        "version": "0.4.24+commit.e67f0147.Emscripten.clang"
    },
    "schemaVersion": "2.0.1",
    "updatedAt": "2018-12-01T08:39:12.620Z"
}